S013000041534C5F446973706C61792E73726563FC
S3150000000040E5062081580200814F02008F58020009
S315000000108F5802008F5802008F580200000000001F
S315000000200000000000000000000000008F580200E1
S315000000308F5802000000000031F90200E5F90200C5
S3150000004039D90000D5EC01003DED0100A5ED010018
S3150000005049B7010049B7010049B70100B5A201003F
S31500000060DB730100CD72010081730100277301006B
S31500000070DB730100CD72010081730100277301005B
S31500000080A98F0100FD8F0100754E01009B4C0100F8
S31500000090C94D0100794B0100FFFFFFFFFFFFFFFF86
S315000000A0FFFFFFFFFFFFFFFFFFFFFFFFFFFFFFFF5A
S315000000B0FFFFFFFFFFFFFFFFFFFFFFFFFFFFFFFF4A
S315000000C0FFFFFFFFFFFFFFFFFFFFFFFFFFFFFFFF3A
S315000000D0FFFFFFFFFFFFFFFFFFFFFFFFFFFFFFFF2A
S31500000400FFFFFFFFFFFDFFFFFFFFFFFFFFFFFFFFF8
S31500000410FFFFFFFFFFFFFFFFFFFFFFFFFFFFFFFFE6
S31500000420FFFFFFFFFFFFFFFFFFFFFFFFFFFFFFFFD6
S31500000430FFFFFFFFFFFFFFFFFFFFFFFFFFFFFFFFC6
S31500000440FFFFFFFFFFFFFFFFFFFFFFFFFFFFFFFFB6
S31500000450FFFFFFFFFFFFFFFFFFFFFFFFFFFFFFFFA6
S31500000460FFFFFFFFFFFFFFFFFFFFFFFFFFFFFFFF96
S31500000470FFFFFFFFFFFFFFFFFFFFFFFFFFFFFFFF86
S31500000480FFFFFFFFFFFFFFFFFFFFFFFFFFFFFFFF76
S31500000490FFFFFFFFFFFFFFFFFFFFFFFFFFFFFFFF66
S315000004A0FFFFFFFFFFFFFFFFFFFFFFFFFFFFFFFF56
S315000004B0FFFFFFFFFFFFFFFFFFFFFFFFFFFFFFFF46
S315000004C0FFFFFFFFFFFFFFFFFFFFFFFFFFFFFFFF36
S315000004D0FFFFFFFFFFFFFFFFFFFFFFFFFFFFFFFF26
S315000004E0FFFFFFFFFFFFFFFFFFFFFFFFFFFFFFFF16
S315000004F0FFFFFFFFFFFFFFFFFFFFFFFFFFFFFFFF06
S3150000050080EC0520FD01440018ED0520FA014300AA
S315000005101CED0520FB01430820ED0520FC014310DE
S3150000052024EE0520B6002B3020EE0520C0042B302B
S315000005301CEE0520CA082B3040EE05200A000648AE
S3150000054018EE0520660015000CEE05206300150860
S3150000055014EE05206500151010EE05206400151830
S3150000056064EE05207008150058EE05206D08150884
S3150000057060EE05206F0815105CEE05206E08151854
S3150000058084EC0520FF01450088EC0520FE014508A6
S3150000059008EE052077011408FCED052074011410FF
S315000005A004EE05207601142000EE052075011428BE
S315000005B020000000200001002F0000002F00010095
S315000005C00C000100110000003000000030000100A6
S315000005D0240000002400010024000200240003007F
S315000005E0240004002400050013000000170000008A
S315000005F02300000021000000210001000700000088
S3150000060007000100070002000700030007000400BE
S31500000610070005000700060007000700120000009B
S3150000062044000000080000000B000000410000002C
S3150000063040000000400001000400000043000000EC
S315000006402B0000002B000A002B000B002B000C00D7
S315000006502B000D002B0001002B0002002B000300D5
S315000006602B0004002B0005002B0006002B000700C2
S315000006702B0008002B0009000600000006000A00F7
S3150000068006000B0006000C0006000D0006000E001A
S3150000069006000F0006000100060002000600030027
S315000006A00600040006000500060006000600070016
S315000006B006000800060009001500000015000100EC
S315000006C015000200310000002A000000450000006D
S315000006D010000000030100000300000003000100F9
S315000006E00F0000000D0000002D0000004200000079
S315000006F02C0000002C0001002C0002002C0003003E
S31500000700320000002800000018000000140000005D
S315000007101400010014000200140003001400040079
S315000007201400050014000600140007001400080059
S315000007301400090034000000340001001600000017
S3150000074016000100350000003600000036000100EA
S3150000075022000000330000003301000029000000E1
S3150000076010B5054C237833B9044B13B10448AFF3E5
S3150000077000800123237010BD8011FE1F00000000C1
S3150000078014C00C0008B5034B1BB103490348AFF373
S31500000790008008BD000000008411FE1F14C00C007C
S315000007A090B587B000AFF860B9607A603B6000230F
S315000007B03B610DE0FB689C6800233A687968B8687D
S315000007C0A04778617B69002B06D03B6901333B610A
S315000007D03B69092BEEDD00E000BF7B6918461C373C
S315000007E0BD4690BD90B587B000AFF860B9607A603D
S315000007F03B6000233B610EE0FB68DC6897F828301D
S315000008003A687968B868A04778617B69002B06D09A
S315000008103B6901333B613B69092BEDDD00E000BF1D
S315000008207B6918461C37BD4690BDFFFF80B58AB070
S3150000083000AF786039607B683B623B6AD3F834313D
S315000008401B68FB613B6AD3F838311B68BB613B6AA6
S31500000850D3F834319B687B613B6AD3F838319B68A7
S315000008603B6100237B623B6A1B7F052B03D03B6AFF
S315000008701B7F042B5CD13B695B684FF0FF31B86985
S315000008809847786207F10C020423F9697869FFF743
S3150000089087FF78627B6A002B05D07B691B69F86944
S315000008A0984764233EE23B6A9B8819463B7BC3F329
S315000008B00303DBB21B021AB27B7B1BB213431BB2D0
S315000008C003FB01F38B4A82FB03121A44D212DB1795
S315000008D0D31A1AB23B689A803B6ADB881946BB7BFF
S315000008E0C3F30303DBB21B021AB2FB7B1BB2134337
S315000008F01BB203FB01F37F4A82FB03121A44D21296
S31500000900DB17D31A1AB23B68DA803B6803221A72E5
S315000009103B681A7A3B6A1A773B68B3F904203B6A4C
S315000009201A833B68B3F906203B6A5A837B6AF9E16E
S315000009303B6A1B7F032B40F0A38005202EF0B4FCFE
S315000009403B695B680B21B869984778627B6A002B24
S3150000095012D03B6804221A723B681A7A3B6A1A77ED
S315000009603B6AB3F918203B689A803B6AB3F91A20B0
S315000009703B68DA800023D5E107F10C020423F9690C
S315000009807869FFF70DFF78627B6A002B05D07B69DB
S315000009901B69F86998476423C4E13B6A9B8819463A
S315000009A03B7BC3F30303DBB21B021AB27B7B1BB296
S315000009B013431BB203FB01F34E4A82FB03121A4494
S315000009C0D212DB17D31A1AB23B689A803B6ADB88CD
S315000009D01946BB7BC3F30303DBB21B021AB2FB7BD4
S315000009E01BB213431BB203FB01F3424A82FB031201
S315000009F01A44D212DB17D31A1AB23B68DA803B6A62
S31500000A00B3F918301A463B68B3F90430D31AB3F178
S31500000A10FF3F22DB3B6AB3F918301A463B68B3F94D
S31500000A200430D31A012B18DC3B6AB3F91A301A4684
S31500000A303B68B3F90630D31AB3F1FF3F0DDB3B6ACF
S31500000A40B3F91A301A463B68B3F90630D31A012BAC
S31500000A5003DC3B6801221A7202E03B6802221A722A
S31500000A603B681A7A3B6A1A773B68B3F904203B6AFB
S31500000A701A833B68B3F906203B6A5A837B6A51E1C5
S31500000A803B6A1B7F012B40F09B8088E003202EF001
S31500000A900BFC3B695B680B21B869984778627B6AF7
S31500000AA0002B15D03B6804221A723B681A7A3B6AFF
S31500000AB01A773B6AB3F918203B689A803B6AB3F908
S31500000AC01A203B68DA800A202EF0EEFB002329E18B
S31500000AD007F10C020423F9697869FFF761FE786271
S31500000AE07B6A002B08D07B691B69F86998476423E9
S31500000AF018E100BF810008803B6A9B8819463B7B52
S31500000B00C3F30303DBB21B021AB27B7B1BB2134394
S31500000B101BB203FB01F3854A82FB03121A44D2126D
S31500000B20DB17D31A1AB23B689A803B6ADB881946F0
S31500000B30BB7BC3F30303DBB21B021AB2FB7B1BB204
S31500000B4013431BB203FB01F3784A82FB03121A44D8
S31500000B50D212DB17D31A1AB23B68DA803B6AB3F9B2
S31500000B6018301A463B68B3F90430D31A002BB8BFC5
S31500000B705B42012B0CDC3B6AB3F91A301A463B6820
S31500000B80B3F90630D31A002BB8BF5B42012B06DD42
S31500000B903B6802221A723B681A7A3B6A1A773B6AEA
S31500000BA01B7F012B3FF472AF3B68B3F904203B6A0D
S31500000BB01A833B68B3F906203B6A5A837B6AB1E025
S31500000BC03B6A1B7F022B40F0A88091E003202EF0A9
S31500000BD06BFB3B695B680B21B869984778627B6A57
S31500000BE0002B15D03B6804221A723B681A7A3B6ABE
S31500000BF01A773B6AB3F918203B689A803B6AB3F9C7
S31500000C001A203B68DA800A202EF04EFB002389E08A
S31500000C1007F10C020423F9697869FFF7C1FD7862D0
S31500000C207B6A002B05D07B691B69F86998476423AA
S31500000C3078E03B6A9B8819463B7BC3F30303DBB230
S31500000C401B021AB27B7B1BB213431BB203FB01F3DD
S31500000C50364A82FB03121A44D212DB17D31A1AB28F
S31500000C603B689A803B6ADB881946BB7BC3F3030368
S31500000C70DBB21B021AB2FB7B1BB213431BB203FB94
S31500000C8001F32A4A82FB03121A44D212DB17D31A43
S31500000C901AB23B68DA803B6AB3F918301A463B68E9
S31500000CA0B3F90430D31AB3F1FF3F26DB3B6AB3F93D
S31500000CB018301A463B68B3F90430D31A012B1CDCF2
S31500000CC03B6AB3F91A301A463B68B3F90630D31AB1
S31500000CD0B3F1FF3F11DB3B6AB3F91A301A463B68A2
S31500000CE0B3F90630D31A012B07DC3B6801221A72CE
S31500000CF03B6A1B7F022B3FF469AF3B681A7A3B6A5B
S31500000D001A773B68B3F904203B6A1A833B68B3F948
S31500000D1006203B6A5A837B6A04E07B691B69F86993
S31500000D2098477B6A18462837BD4680BD81000880F3
S31500000D3080B58AB002AF78607B68FB61FB69D3F847
S31500000D4034319B68BB61FB69D3F834311B687B6126
S31500000D50344B1B6AFA69B2F83021002110469847D5
S31500000D6002202EF0A1FABB691B69786998473861A1
S31500000D702C4B1B6AFA69B2F83021012110469847BC
S31500000D8002202EF091FA00233B7374237B732723F2
S31500000D90BB730423FB7307F10C02002300930423A7
S31500000DA07969B869FFF71EFD38613B69002B05D0EC
S31500000DB0BB691B697869984764232FE004233B735A
S31500000DC0C0237B7307F10C02002300930223796989
S31500000DD0B869FFF707FD38613B69002B05D0BB6991
S31500000DE01B6978699847642318E0E0233B7307F191
S31500000DF00C020023009301237969B869FFF7F2FC1E
S31500000E0038613B69002B05D0BB691B697869984737
S31500000E10642303E0FB6905221A770023184620376E
S31500000E20BD4680BDA4A4040080B483B000AF786042
S31500000E3039603B685AB27B6883F8C6213B6818461E
S31500000E400C37BD465DF8047B704780B586B000AFB1
S31500000E50F860B9607A603B607B6A23F030037B619F
S31500000E607B6A03F01003002B0CD0FB68D3F88030AC
S31500000E7003F40003002B05D10921F868FFF7D4FF1E
S31500000E80034645E07B6A03F02003002B0CD0FB6889
S31500000E90D3F8803003F40013002B05D10921F8683C
S31500000EA0FFF7C2FF034633E07B690D2B05D07B6954
S31500000EB00E2B02D07B690F2B12D1FB68D3F8803042
S31500000EC003F48033002B0BD1FB68D3F88030DBB200
S31500000ED0092B05D80921F868FFF7A6FF034617E096
S31500000EE0FB685B6A3B613B69BA68C3F868213B698A
S31500000EF07A68C3F86C213B693A68C3F870213B698C
S31500000F003A6AC3F874213B697A6AC3F878210023E8
S31500000F1018461837BD4680BD80B59CB006AFF86050
S31500000F20B9607A607B8000237B630023FB62FB68E9
S31500000F301B6BBB6200233B63FB685B6A7B627B6A5D
S31500000F40D3F8783103F01003FB627B6AD3F86C3177
S31500000F50B3F5006F03DB7B6F23F008037B67BB6889
S31500000F607B647B683B647A887B6C1A447B6AD3F823
S31500000F7070319A4205DD7B6AD3F870217B88D31ADB
S31500000F807B64B7F860203B6C1A447B6AD3F87431F3
S31500000F909A4206DD7B6AD3F87421B7F86030D31A1B
S31500000FA03B64FB685B6A3B62BB6A002B00F09D807A
S31500000FB07B6F03F48073002B40F097807B6ADA7DA9
S31500000FC0BB6A1A707B6A93F80E21BB6A9A707B6AB9
S31500000FD093F8D520BB6A5A707B6AD3F8FC20BB6AAB
S31500000FE05A607B6AD3F80021BB6A9A607B6AD3F8A1
S31500000FF02C21BB6ADA607B6A93F8E920BB6A83F826
S3150000100029207B6AD3F83821BB6A1A617B6AD3F838
S315000010103421BB6A5A617B6A93F8E820BB6A83F87D
S3150000102028207B6AD3F8EC20BB6A9A617B6AD3F8E6
S31500001030F020BB6ADA617B6AD3F8F420BB6A1A62D5
S315000010407B6AD3F8F820BB6A5A627B6A93F8EA2077
S31500001050BB6A83F82A207B6A93F8EB20BB6A83F885
S315000010602B207B6AD3F83C21BB6ADA627B6AD3F811
S315000010704021BB6A1A637B6AD3F82421BB6A5A6390
S315000010807B6AD3F85821BB6A9A637B6AD3F85C21E2
S31500001090BB6ADA637B6AB3F9A820BB6AA3F854205B
S315000010A07B6AB3F9AA20BB6AA3F856207B6AD3F8F9
S315000010B0A020BB6ADA647B6AD3F8A420BB6A1A65EF
S315000010C07B6AD3F89820BB6A5A647B6AD3F89C2063
S315000010D0BB6A9A647B6AD3F8B020BB6ADA657B6A1E
S315000010E0D3F8B420BB6A1A6602E07B6ADB7D3B63F9
S315000010F00321F86801F084FC00220021F86809F059
S31500001100E4FEFB6A002B04D07B6AD3F868317B636C
S31500001110D7E07B6AD3F8783123F03003FB61FB69B3
S31500001120422B00F2CD8001A252F823F06312000098
S3150000113081120000A112000081120000811200003D
S3150000114039120000A1120000811200008112000075
S3150000115063120000631200006312000063120000B5
S31500001160631200006312000063120000C112000047
S31500001170C1120000C1120000C1120000C11200001D
S31500001180C1120000C1120000C1120000C11200000D
S31500001190C1120000C1120000C1120000C1120000FD
S315000011A0C1120000C1120000C1120000C1120000ED
S315000011B0C1120000C1120000C1120000C1120000DD
S315000011C0C1120000C1120000C1120000C1120000CD
S315000011D0C1120000C1120000C1120000C1120000BD
S315000011E0C1120000C1120000C1120000C1120000AD
S315000011F0C1120000C1120000C1120000C11200009D
S31500001200C1120000C1120000C1120000C11200008C
S31500001210C1120000C1120000C1120000C11200007C
S31500001220C1120000C1120000C1120000A11200008C
S315000012308112000081120000FB68D3F8803003F4AD
S315000012400013002B05D10921F868FFF7EDFD0346D1
S31500001250F6E13B6A554AC3F82C213B6A012283F822
S31500001260E9207B6AD3F868217B88B7F86010786A32
S31500001270D0F86C0100FB01F10B4413447B6320E0C2
S315000012807B6AD3F868217B88B7F86010786AD0F853
S315000012906C0100FB01F10B445B0013447B6310E01F
S315000012A07B6AD3F868217B88B7F86010786AD0F833
S315000012B06C0100FB01F10B449B0013447B6300E0CF
S315000012C000BF7B6F03F00F031946F86809F01EFD97
S315000012D0FB6A002B14D07B6AD3F86C117B6AD3F8B7
S315000012E070017B6AD3F874317A6AD2F87821019258
S315000012F0009303460A46796BF86809F059FA0DE03F
S315000013007B6AD3F86C217B6AD3F8783101933B6C06
S3150000131000937B6C796BF86809F04AFA7B6F03F0EF
S315000013202003002B10D07B6F03F08003002B05D029
S315000013304FF07F43FB630023BB630BE00023FB639B
S315000013404FF07F43BB6305E04FF07F43FB634FF0F5
S315000013507F43BB637B6F03F01003002B15D07B6FBD
S3150000136003F04003002B0AD07B6A9B68FA6B134399
S31500001370FB637B6ADB68BA6B1343BB631CE07B6A67
S315000013809B68BA6B1343BB6316E07B6F03F04003A5
S31500001390002B0DD07B6A9B68FA6B1343FB637B6A59
S315000013A0DB68BA6B1343BB6306E000BF10000400A2
S315000013B0BB6B63F07F43BB633B6AFA6BC3F8582190
S315000013C03B6ABA6BC3F85C213B6A93F80E3143F073
S315000013D00503DAB23B6A83F80E214FF480337B654E
S315000013E04FF480333B650023FB640023BB64BB687A
S315000013F01B01BB617B681B017B61B7F86430102B56
S315000014000CD9BB691B041A46B7F86430B2FBF3F378
S315000014107B657B6DDA0F13445B10FB64B7F96830AC
S31500001420102B0CDD7B691B041A46B7F86830B2FB3B
S31500001430F3F33B653B6DDA0F13445B10BB647B6FC4
S3150000144003F40073002B07D07B6D5B427B65BB68A2
S315000014501A04FB6CD31AFB647B6F03F48063002BC6
S3150000146007D03B6D5B423B657B681A04BB6CD31AA5
S31500001470BB647B6F03F00403002B03D0FB6CA3F566
S315000014800043FB647B6F03F00803002B03D0BB6CA7
S31500001490A3F50043BB64FB6A002B0AD07B881B04C0
S315000014A0FA6C1344FB64B7F860301B04BA6C13443F
S315000014B0BB64B7F97020B7F96C103B6D0493002339
S315000014C00393002302937B6D0193BB6C0093FB6C2B
S315000014D0F86809F0B3FCB7F97010B7F96C20B7F9E2
S315000014E068300193B7F9643000930B46396AF8689F
S315000014F000F0FAFABB6A002B00F09D807B6F03F4C4
S315000015008073002B40F09780BB6A1A787B6ADA7585
S31500001510BB6A9A787B6A83F80E21BB6A5A787B6A23
S3150000152083F8D520BB6A5A687B6AC3F8FC20BB6A7D
S315000015309A687B6AC3F80021BB6ADA687B6AC3F8DB
S315000015402C21BB6A93F829207B6A83F8E920BB6AC1
S315000015501A697B6AC3F83821BB6A5A697B6AC3F881
S315000015603421BB6A93F828207B6A83F8E820BB6A9B
S315000015709A697B6AC3F8EC20BB6ADA697B6AC3F8AE
S31500001580F020BB6A1A6A7B6AC3F8F420BB6A5A6AFF
S315000015907B6AC3F8F820BB6A93F82A207B6A83F833
S315000015A0EA20BB6A93F82B207B6A83F8EB20BB6AA0
S315000015B0DA6A7B6AC3F83C21BB6A1A6B7B6AC3F89A
S315000015C04021BB6A5A6B7B6AC3F82421BB6A9A6BBB
S315000015D07B6AC3F85821BB6ADA6B7B6AC3F85C2165
S315000015E0BB6AB3F954207B6AA3F8A820BB6AB3F997
S315000015F056207B6AA3F8AA20BB6ADA6C7B6AC3F81A
S31500001600A020BB6A1A6D7B6AC3F8A420BB6A5A6C19
S315000016107B6AC3F89820BB6A9A6C7B6AC3F89C20E5
S31500001620BB6ADA6D7B6AC3F8B020BB6A1A6E7B6A46
S31500001630C3F8B42003E0396BF86801F0E1F9002340
S3150000164018465837BD4680BD80B586B000AFF860F5
S31500001650B9607A60FB68D3F8B8317B61FB68D3F870
S31500001660B83103F10802FB68C3F8B8217B69BA6890
S315000016701A607B697A685A60FB68D3F8BC315A1ED7
S31500001680FB68C3F8BC21FB68D3F8BC31002B04DC33
S31500001690FB68D3F8C031F868984700BF1837BD46D5
S315000016A080BDFFFF80B58CB002AFF860B96011460F
S315000016B01A460B46FB801346BB80B7F93030002B29
S315000016C003D0B7F93430002B01DC002305E23B8E52
S315000016D0103B9BB23B86BB8E103B9BB2BB86FA8807
S315000016E03B8E13449BB27B83BA88BB8E13449BB25A
S315000016F03B83FB8823F00F031BB23B82BB8823F09E
S315000017000F031BB27B827B8B0F339BB21BB223F082
S315000017100F031BB2BB823B8B0F339BB21BB223F072
S315000017200F031BB2FB8207F110031946F8680AF093
S3150000173033FF0346002B01D10023CEE1B968F868D8
S3150000174008F0B0F9BB6893F8D53003F00203002B1C
S3150000175010D0FA887B8B13431BB29BB203F00F03A6
S315000017607B62BA883B8B13431BB29BB203F00F0319
S315000017703B6203E000237B6200233B62BB6893F875
S31500001780D53003F00103002B00F09780B7F9103035
S315000017901A46B7F90630D31A1A46BB68D3F8103181
S315000017A003FB02F31A09BB68D3F8103113441A4637
S315000017B00421F868FFF748FFBB68D3F810311A46D2
S315000017C00A21F868FFF740FF00221021F868FFF7AA
S315000017D03BFFB7F91A30B7F910209B1A1A46BB68B7
S315000017E0D3F8103103FB02F31A09BB68D3F81031A2
S315000017F013441A460521F868FFF726FFBB68D3F89D
S3150000180010315B421A460B21F868FFF71DFF0022D4
S315000018101121F868FFF718FFB7F912301A46B7F921
S315000018200430D31A1A46BB68D3F8103103FB02F30F
S315000018301A09BB68D3F8103113441A460621F86812
S31500001840FFF702FF00220C21F868FFF7FDFEBB68D8
S31500001850D3F810311A461221F868FFF7F5FEB7F9EA
S315000018601830B7F912209B1A1A46BB68D3F8103104
S3150000187003FB02F31A09BB68D3F8103113441A4666
S315000018800721F868FFF7E0FE00220D21F868FFF750
S31500001890DBFEBB68D3F810315B421A461321F868A9
S315000018A0FFF7D2FE07F110020F2300930423B96855
S315000018B0F86804F0E3FBF861F3E07B6A002B48D19B
S315000018C03B6A002B0AD107F1100200230093002384
S315000018D0B968F86804F0D2FBF861E2E0B7F91230B3
S315000018E01A46B7F90430D31A1B0303F580331A4698
S315000018F00421F868FFF7A8FE00220A21F868FFF71E
S31500001900A3FE4FF480321021F868FFF79DFEB7F969
S315000019101830B7F912209B1A1B0303F580331A46B9
S315000019200521F868FFF790FE00220B21F868FFF703
S315000019308BFE6C4A1121F868FFF786FE07F110024C
S31500001940032300930223B968F86804F097FBF86153
S31500001950A7E03B6A002B3AD1B7F910301A46B7F91F
S315000019600630D31A1B0303F580331A460421F868A0
S31500001970FFF76AFE4FF480320A21F868FFF764FE2B
S3150000198000221021F868FFF75FFEB7F91A30B7F9A1
S3150000199010209B1A1B0303F580331A460521F868AD
S315000019A0FFF752FE4F4A0B21F868FFF74DFE002263
S315000019B01121F868FFF748FE07F110020323009390
S315000019C00223B968F86804F059FBF86169E0B7F9D1
S315000019D010301A46B7F90630D31A1B0303F58033C5
S315000019E01A460421F868FFF72FFE4FF480320A21C9
S315000019F0F868FFF729FE00221021F868FFF724FE99
S31500001A00B7F91A30B7F910209B1A1B0303F5803378
S31500001A101A460521F868FFF717FE324A0B21F868C7
S31500001A20FFF712FE00221121F868FFF70DFEB7F945
S31500001A3012301A46B7F90430D31A1B0303F5803364
S31500001A401A460621F868FFF7FFFD00220C21F86808
S31500001A50FFF7FAFD4FF480321221F868FFF7F4FD24
S31500001A60B7F91830B7F912209B1A1B0303F5803318
S31500001A701A460721F868FFF7E7FD00220D21F868EE
S31500001A80FFF7E2FD174A1321F868FFF7DDFD07F1BE
S31500001A9010020F2300930423B968F86804F0EEFAE5
S31500001AA0F86107F110020023B968F86807F033F906
S31500001AB007F110020023B968F86809F01FFEFB69F8
S31500001AC01A460021F868FFF7BFFD07F11003002250
S31500001AD01946F86808F0EEF9012318462837BD467E
S31500001AE080BD00BF0000FFFF80B586B002AFF86082
S31500001AF0B96011461A460B46FB801346BB80B7F900
S31500001B000410B7F90620B7F91C300193B7F918305D
S31500001B1000930B46B968F868FFF7C4FD03461846FC
S31500001B201037BD4680BD80B586B002AFF860084666
S31500001B3011461A4603467B810B463B811346FB80C2
S31500001B40FB68996AB7F90800B7F90A20B7F918309F
S31500001B500193B7F9063000930346F868FFF7A2FD34
S31500001B60002318461037BD4680BD80B586B002AF4B
S31500001B70F860084611461A4603467B810B463B81B0
S31500001B801346FB80FB68D96AFB68B3F96E309AB2DC
S31500001B907B8913449BB218B2FB68B3F970309AB2D2
S31500001BA03B8913449BB21AB2B7F918300193B7F9BF
S31500001BB00630009313460246F868FFF773FD0023CC
S31500001BC018461037BD4680BD90B593B006AFF86095
S31500001BD0084611461A4603467B810B463B8113464F
S31500001BE0FB80FB68B3F86C30FB85FB68DB6ABB6285
S31500001BF0B7F92E30002B40F3DF80B7F92E30DA0F1D
S31500001C0013445B10FB84B7F92E30102B12D0BB6A3D
S31500001C1093F8D730012B6FD1BB6AB3F9D830B7F937
S31500001C202E209A4268DABB6A93F8D53003F0010396
S31500001C30002B61D1FB68D96A7A89FB8DD31A9BB2D6
S31500001C4018B23A89FB8DD31A9BB21CB2FB8D5B008E
S31500001C509AB2B7F8403013449BB21BB20193B7F95E
S31500001C602E30009323460246F868FFF71BFDFB68FB
S31500001C70D96A3A89FB8DD31A9BB218B2B7F90A20F2
S31500001C80B7F92E300193B7F9063000930346F8688A
S31500001C90FFF708FDFB68D96A7A89FB8813449BB273
S31500001CA018B23A89FB8DD31A9BB21CB2FB8D5B002E
S31500001CB09AB2B7F8403013449BB21BB20193B7F9FE
S31500001CC02E30009323460246F868FFF7EBFCFB68CC
S31500001CD0D96A3A89B7F8403013449BB218B2B7F9BB
S31500001CE00A20B7F92E300193B7F906300093034660
S31500001CF0F868FFF7D7FC5FE07A89FB8CD31A9BB2B2
S31500001D00083B9BB21BB2BB823A89FB8CD31A9BB2AF
S31500001D10083B9BB21BB2FB827A89FB8813449AB2BA
S31500001D20FB8C13449BB2083B9BB21BB23B833A89A4
S31500001D30FB8CD31A9BB2083B9BB21BB27B837A897E
S31500001D40FB8813449AB2FB8C13449BB2083B9BB2AC
S31500001D501BB2BB833A89B7F8403013449AB2FB8C66
S31500001D6013449BB2083B9BB21BB2FB837A89FB8C64
S31500001D70D31A9BB2083B9BB21BB23B843A89B7F895
S31500001D80403013449AB2FB8C13449BB2083B9BB27F
S31500001D901BB27B8407F114020023049300230393F0
S31500001DA004230293B7F92E300193042300930023F2
S31500001DB0B96AF86807F010F8002318463437BD46AC
S31500001DC090BD90B587B002AFF860084611461A4636
S31500001DD003467B810B463B811346FB80B7F9060021
S31500001DE0B7F90820B7F90A10B7F92030009303466F
S31500001DF0F868FFF7E9FEF86807F0DCFCFB68996A0B
S31500001E007B89103B9BB218B23B89103B9BB21CB23C
S31500001E10FB8820339BB21BB23A8C203292B212B2AC
S31500001E200192009323460246F868FFF73BFCF868E8
S31500001E3007F006FD002318461437BD4690BD80B551
S31500001E4086B002AFF860084611461A4603467B8103
S31500001E500B463B811346FB80FB68D96AFB68B3F9E6
S31500001E606E309AB27B8913449BB218B2FB68B3F901
S31500001E7070309AB23B8913449BB21AB2B7F9183044
S31500001E800193B7F90630009313460246F868FFF748
S31500001E9009FCF86807F08EFCFB68996AB7F9080038
S31500001EA0B7F90A20B7F918300193B7F9063000934D
S31500001EB00346F868FFF7F6FBF86807F0C1FC002355
S31500001EC018461037BD4680BD80B586B000AFF860B5
S31500001ED0B9607A60FB68D3F8B8317B61FB68D3F8E8
S31500001EE0B83103F10802FB68C3F8B8217B69BA6808
S31500001EF01A607B697A685A60FB68D3F8BC315A1E4F
S31500001F00FB68C3F8BC21FB68D3F8BC31002B04DCAA
S31500001F10FB68D3F8C031F868984700BF1837BD464C
S31500001F2080BDFFFF80B592B006AFF860B96011467C
S31500001F301A460B46FB801346BB8000237B62B7F92B
S31500001F403C30002B41DDB7F93C30DA0F13445B100F
S31500001F507B847A8C3B8F13449BB23B84FA883B8C00
S31500001F60D31A9BB21BB223F00F031BB2BB82BA88F3
S31500001F703B8CD31A9BB21BB223F00F031BB2FB821E
S31500001F80FA883B8C13449BB20F339BB21BB223F0EF
S31500001F900F031BB23B83BA883B8C13449BB20F33AF
S31500001FA09BB21BB223F00F031BB27B83B7F9382019
S31500001FB0B7F92230D31A082B2FDC3A8F7B8C1344C7
S31500001FC09BB23B870023BB8727E0FA883B8FD31A57
S31500001FD09BB21BB223F00F031BB2BB82BA883B8FA6
S31500001FE0D31A9BB21BB223F00F031BB2FB82FA88F3
S31500001FF03B8F13449BB20F339BB21BB223F00F03EC
S315000020001BB23B83BA883B8F13449BB20F339BB200
S315000020101BB223F00F031BB27B83BB68B3F9DA3024
S31500002020002B63DDBB68B3F9DA307B62B7F9143095
S315000020301A467B6AD31AFA68B2F97220934204DA16
S31500002040FB68B3F97230BB8208E0B7F914309AB274
S315000020507B6A9BB2D31A9BB21BB2BB82B7F916300E
S315000020601A467B6AD31AFA68B2F97420934204DAE4
S31500002070FB68B3F97430FB8208E0B7F916309AB200
S315000020807B6A9BB2D31A9BB21BB2FB82B7F918309C
S315000020901A467B6A1344FA68B2F97620934204DD45
S315000020A0FB68B3F976303B8308E0B7F918309AB28B
S315000020B07B6A9BB213449BB21BB23B83B7F91A30BF
S315000020C01A467B6A1344FA68B2F97820934204DD13
S315000020D0FB68B3F978307B8308E0B7F91A309AB217
S315000020E07B6A9BB213449BB21BB27B8307F114033A
S315000020F01946F8680AF050FA0346002B01D100236E
S3150000210028E1FA88B7F914309BB2D31A9BB2FB8048
S31500002110BA88B7F916309BB2D31A9BB2BB80B9689E
S31500002120F86807F0BFFCBB68D3F82831FB61B7F944
S315000021303C30002B43D1B7F906200123049300233A
S31500002140039300230293B7F938300193B7F90430AB
S31500002150009313460022B968F86800F093FFFB6904
S3150000216003F4007343F4400343F04103BB62FB688E
S31500002170D3F8803003F08063002B08D0BB6893F857
S31500002180D5301B0603F08073BA6A1343BB6207F1AE
S315000021901402BB6A00930223B968F86803F06EFF65
S315000021A0B862BB6A1A460021F868FFF78DFEB7F9D8
S315000021B038207B6A13440F331B09FB62B4E0B7F97E
S315000021C03820B7F93C30B7F93C1001FB03F39A42CB
S315000021D048DDBB6893F8D53003F00103002B41D1ED
S315000021E03B8F01339BB23B87B7F93C301033DA0F94
S315000021F013445B101B031946B7F906200123049309
S31500002200002303930291B7F938300193B7F90430EC
S31500002210009313460022B968F86800F033FFFB69A3
S3150000222003F4007343F4004343F04103BB6207F138
S315000022301402BB6A00930223B968F86803F01EFF14
S31500002240B862B7F93C301B031A461621F868FFF747
S315000022503BFEBB6A1A460021F868FFF735FE0023ED
S31500002260FB6261E0B7F93C30DA0F13445B101BB236
S315000022709AB23B8F13449BB21BB2B7F906100122E8
S31500002280049200220392002202920193B7F90430CD
S3150000229000930B460022B968F86800F0F3FE3A8F07
S315000022A0B7F93C30D90F0B445B101BB29BB2D31A63
S315000022B09BB21BB2B7F906100122049201220392C7
S315000022C0264A02920193B7F9043000930B46022284
S315000022D0B968F86800F0D6FEFB6903F4206343F0A2
S315000022E0C503BB62FB68D3F8803003F08063002B24
S315000022F008D0BB6893F8D5301B0603F08073BA6A22
S315000023001343BB6207F11402BB6A00930423B96846
S31500002310F86803F0B3FEB862BB6A1A460021F86893
S31500002320FFF7D2FD0023FB6207F114020023B96810
S31500002330F86806F0F0FC07F114020023B968F868A3
S3150000234009F0DCF907F11403FA6A1946F86807F090
S31500002350B1FD012318463037BD4680BD0080FFFF22
S3150000236080B586B002AFF860084611461A460346A5
S315000023707B810B463B811346FB80FB68996AB7F964
S315000023800800B7F90A20B7F918300193B7F90630F3
S3150000239000930346F868FFF7C5FD0023184610377B
S315000023A0BD4680BD80B586B002AFF86008461146CE
S315000023B01A4603467B810B463B811346FB80FB682E
S315000023C0D96AFB68B3F96E309AB27B8913449BB223
S315000023D018B2FB68B3F970309AB23B8913449BB2CA
S315000023E01AB2B7F918300193B7F9063000931346BD
S315000023F00246F868FFF796FD002318461037BD46DB
S3150000240080BD90B589B002AFF860084611461A46FD
S3150000241003467B810B463B811346FB80FB68B3F882
S315000024206C30FB82B7F91630002B01DC00234CE040
S31500002430B7F92830002B23DDFB68D86AFA88B7F98C
S315000024402830D90F0B445B101BB29BB2D31A9AB239
S31500002450B7F91630D90F0B445B101BB29BB2D31AD7
S315000024609BB21BB2B7F90840B7F90A10B7F91620A4
S315000024700192009323460A460146F868FFF752FD8B
S31500002480FB68D86AB7F92830DA0F13445B101BB221
S315000024909AB2FB8813449AB2B7F91630D90F0B4497
S315000024A05B101BB29BB213449BB21BB2B7F9084038
S315000024B0B7F90A10B7F916200192009323460A4687
S315000024C00146F868FFF72EFD002318461C37BD4667
S315000024D090BD90B589B002AFF860084611461A461D
S315000024E003467B810B463B811346FB80FB68B3F8B2
S315000024F06C30FB82B7F92830002B18DDB7F916309F
S31500002500002B14DDFB68D96AFB8A5B009AB23B8D0F
S3150000251013449BB21BB2B7F90800B7F90A2001931E
S31500002520B7F9063000930346F868FFF7FBFCB7F9E6
S315000025302830002B1FD1B7F91630002B1BDDFB68A6
S31500002540D96AB7F91630103BDA0F13445B109AB20A
S31500002550FB8813449BB21BB2FA8A083292B212B2BB
S31500002560B7F90840B7F90A000192009323460246DC
S31500002570F868FFF7D7FCF86807F01CF9FB68996A5A
S31500002580B7F90800B7F90A20B7F928300193B7F967
S31500002590063000930346F868FFF7C4FCF86807F0B6
S315000025A04FF9002318461C37BD4690BD80B586B04E
S315000025B002AFF860084611461A4603467B810B4671
S315000025C03B811346FB80FB68D96AFB68B3F96E3022
S315000025D09AB27B8913449BB218B2FB68B3F9703088
S315000025E09AB23B8913449BB21AB2B7F918300193D9
S315000025F0B7F90630009313460246F868FFF792FCD7
S31500002600F86807F0D7F8FB68996AB7F90800B7F9D0
S315000026100A20B7F918300193B7F90630009303463C
S31500002620F868FFF77FFCF86807F00AF900231846F8
S315000026301037BD4680BD80B483B000AF7860396086
S315000026403B685AB27B6883F8C6213B6818460C374C
S31500002650BD465DF8047B704780B584B000AF7860F6
S315000026604FF4BE7006F076F9F860FB68002B05D1D2
S3150000267001217868FFF7DFFF002358E1FB687A68DD
S315000026805A60FB686FF07F429A60FB686FF07F428A
S31500002690DA60FB68FF229A74FB68FF22DA74FB6833
S315000026A04FF07F42C3F84C21FB68FF221A74FB6887
S315000026B0FF225A74FB684FF07F42C3F85021FB6833
S315000026C04FF07F42C3F85421FB68022283F8D520DD
S315000026D0FB680022C3F82821FB68002283F80E213C
S315000026E0FB6810229A82FB684FF48032C3F81021EF
S315000026F0FB684FF4B052C3F81C217B68D3F88030D6
S3150000270003F00063002B05D1FB684FF48002C3F889
S3150000271020210BE0FB68884AC3F82021FB68D3F828
S31500002720203143F48002FB68C3F82021FB684FF494
S315000027307032C3F83421FB68042283F8E920FB6871
S315000027404FF40022C3F82C21FB680022C3F83C2179
S31500002750FB680022C3F84021FB680022C3F844212D
S315000027607B685A6DFB68D3F820311A43FB68D3F8AF
S315000027701C311A43FB68D3F82C311A43FB68D3F893
S315000027803C311A43FB68D3F840311A43FB68D3F84F
S3150000279044311A43FB68C3F82421FB6800225A76A9
S315000027A0FB6801229A75FB680022DA75FB68002235
S315000027B01A76FB68AA22C3F81421FB68AA22C3F87A
S315000027C0C420FB68012283F8D420FB684FF48032D2
S315000027D0C3F83021FB680022C3F8CC20FB68102226
S315000027E0C3F8D020FB684FF48032C3F81821FB6889
S315000027F00422C3F8C820FB68012283F8D620FB68B0
S31500002800012283F8D720FB684022A3F8D820FB6872
S315000028100022A3F8DA20FB68002283F80F21FB6868
S315000028200022C3F8FC20FB680022C3F80021FB68E5
S315000028300022C3F80421FB680022C3F80821FB68C4
S31500002840012283F80C21FB68002283F80D21FB6826
S315000028500022C3F84821FB681C33184603F041FBED
S31500002860FB683433184603F03CFBFB684C331846D0
S3150000287003F037FBFB686433184603F032FBFB6852
S315000028807C33184603F02DFBFB689433184603F09F
S3150000289028FBFB68AC33184603F023FBFB680C22CD
S315000028A083F8E820FB684FF0FF32C3F83821FB6855
S315000028B0002283F8DC20FB68002283F8DD20FB6819
S315000028C0002283F8DE20FB68002283F8DF20FB6805
S315000028D0FF2283F8E020FB68FF2283F8E120FB68F3
S315000028E0FF2283F8E220FB68FF2283F8E320FB68DF
S315000028F0012283F8E420FB68032283F8E520FB68C5
S31500002900032283F8E620FB68032283F8E720F968B0
S31500002910786808F097FC7B68DA69FB681A607B6860
S31500002920FA68DA6100217868FFF785FEFB681846C9
S315000029301037BD4680BD00BF0800002080B584B0BA
S3150000294000AF786039607B681B6A3A689A4205D1A5
S3150000295007217868FFF76FFE03464DE07B681C335E
S31500002960FB6002E0FB681B68FB60FB68002B04D081
S31500002970FB681B683A689A42F4D1FB68002B05D1C4
S3150000298003217868FFF757FE034635E03B681A686F
S31500002990FB681A607B685B6A3A689A4203D17B6877
S315000029A01A6A7B685A627B68DB6A3A689A4203D184
S315000029B07B681A6A7B68DA627B689B6A3A689A4225
S315000029C003D17B681A6A7B689A623B68D3F8083140
S315000029D0002B09D03B68D3F8083118460BF014F8E1
S315000029E03B680022C3F80821386805F0BFFF0021C4
S315000029F07868FFF720FE034618461037BD4680BDAF
S31500002A0080B584B000AF786039607B685B6AFB6034
S31500002A103B68DAB2FB68DA75FB6893F80E3143F06F
S31500002A200103DAB2FB6883F80E213B68032B3CD81E
S31500002A3001A252F823F000BF492A00005D2A0000D7
S31500002A40712A0000972A0000FB6893F8D53023F01E
S31500002A500C03DAB2FB6883F8D52027E0FB6893F80D
S31500002A60D53023F00C03DAB2FB6883F8D5201DE0DD
S31500002A70FB6893F8D53043F00403DAB2FB6883F8B9
S31500002A80D520FB6893F8D53023F00803DAB2FB684B
S31500002A9083F8D5200AE0FB6893F8D53043F00C03A1
S31500002AA0DAB2FB6883F8D52000E000BF0021786821
S31500002AB0FFF7C1FD034618461037BD4680BD00BF6F
S31500002AC080B584B000AFF860B9607A60FB685B6A75
S31500002AD07A6822F07F41BA68023243F82210FB6816
S31500002AE05B6A93F80E21FB685B6A42F00102D2B280
S31500002AF083F80E210021F868FFF79DFD034618466E
S31500002B001037BD4680BD80B584B000AF78600B46F7
S31500002B10FB707B685B6AFB60FB6893F80E3143F0E1
S31500002B200103DAB2FB6883F80E21FB689B7CFA7816
S31500002B309A4208D0FB6893F80E3143F00603DAB2E6
S31500002B40FB6883F80E21FB68FA789A74FB689B7D14
S31500002B5003F00103002B04D0FB781A06FB68C3F8C8
S31500002B604C2100217868FFF766FD034618461037AA
S31500002B70BD4680BD80B586B000AFF860B9607A60AA
S31500002B80FB685B6A3B613B6993F80E3143F00103D6
S31500002B90DAB23B6983F80E2100237B61BB68032B05
S31500002BA019D801A252F823F0B92B0000E32B00003C
S31500002BB0C32B0000CD2B00007B6943F400637B61CF
S31500002BC010E07B6943F400737B610BE07B6943F49F
S31500002BD020637B6106E01021F868FFF72CFD0346B1
S31500002BE04AE000BF7B68032B19D801A252F823F0F4
S31500002BF0012C00002B2C00000B2C0000152C0000D3
S31500002C007B6943F480537B6110E07B6943F4806306
S31500002C107B610BE07B6943F4A0537B6106E01021E6
S31500002C20F868FFF708FD034626E000BF3B697A69AE
S31500002C30C3F81C21FB685A6D3B69D3F81C311A4353
S31500002C403B69D3F82C311A433B69D3F820311A4338
S31500002C503B69D3F83C311A433B69D3F840311A43F8
S31500002C603B69D3F844311A433B69C3F82421002158
S31500002C70F868FFF7E0FC034618461837BD4680BDE6
S31500002C8080B586B000AFF860B9607A60FB685B6AB1
S31500002C903B613B6993F80E3143F00103DAB23B69BD
S31500002CA083F80E213B6900221A76FB68D3F8803040
S31500002CB003F00063002B1ED14FF480037B61BB68D9
S31500002CC0012B07D17B68002B04D17B6923F4000319
S31500002CD07B6163E0BB68002B07D17B68012B04D1C5
S31500002CE07B6943F400037B6158E01021F868FFF725
S31500002CF0A2FC034678E008237B617B6943F48003EA
S31500002D007B61BB68032B1CD801A252F823F000BFDD
S31500002D10212D00004F2D00002B2D0000352D000029
S31500002D207B6943F080537B6112E07B6943F040038B
S31500002D307B610DE07B6943F0805343F040037B6188
S31500002D4006E01021F868FFF776FC03464CE000BF6A
S31500002D507B68032B1BD801A252F823F06D2D0000CF
S31500002D609B2D0000772D0000812D00007B6943F02C
S31500002D7000537B6112E07B6943F080037B610DE0C9
S31500002D807B6943F0005343F080037B6106E010212A
S31500002D90F868FFF750FC034626E000BF3B697A69F6
S31500002DA0C3F82021FB685A6D3B69D3F81C311A43DE
S31500002DB03B69D3F82C311A433B69D3F820311A43C7
S31500002DC03B69D3F83C311A433B69D3F840311A4387
S31500002DD03B69D3F844311A433B69C3F824210021E7
S31500002DE0F868FFF728FC034618461837BD4680BD2D
S31500002DF080B584B000AF786039607B685B6AFB6041
S31500002E003B68002B0DD0FB6893F8D53043F00203E6
S31500002E10DAB2FB6883F8D520FB680022C3F82821C4
S31500002E201EE0FB6893F8D53023F00203DAB2FB68A4
S31500002E3083F8D520FB684FF4FC42C3F82821FB68D1
S31500002E404FF48032C3F81021FB6893F8D53023F095
S31500002E500103DAB2FB6883F8D520FB6810229A8258
S31500002E6000217868FFF7E7FB034618461037BD4692
S31500002E7080BD80B584B000AF786039607B685B6ADE
S31500002E80FB603B68DAB2FB6883F8D6203B68022B0E
S31500002E9004D1FB68032283F80F2103E0FB680022BC
S31500002EA083F80F2100217868FFF7C5FB0346184613
S31500002EB01037BD4680BD80B584B000AF78603960FC
S31500002EC07B685B6AFB603B68DAB2FB6883F8D720F5
S31500002ED000217868FFF7AFFB034618461037BD465A
S31500002EE080BD80B586B000AFF860B96011461A465D
S31500002EF00B46FB801346BB80FB68002B49D0FB6862
S31500002F00596ABB685A1C13465B001344DB000B442A
S31500002F1004337B613A6A7B6A1343002B0FD1FB684B
S31500002F205B6A597E0122BB6802FA03F3DBB2DB431C
S31500002F30DAB2FB685B6A0A40D2B25A7623E0BB6A11
S31500002F4043F001027B691A607B69FA889A827B6981
S31500002F50BA88DA827B693A6A5A607B697A6A9A60C9
S31500002F607B690022DA607B6900221A61FB685B6A72
S31500002F70597E0122BB6802FA03F3DAB2FB685B6A88
S31500002F800A43D2B25A760021F868FFF754FB03468B
S31500002F9000E0022318461837BD4680BD80B485B0D0
S31500002FA000AF78607B68D3F84C311B0AFB607B6806
S31500002FB01B7C1A46FB6803FB02F303F1FF1303F5C0
S31500002FC07F4303F07F427B68C3F850217B685B7CBC
S31500002FD01A46FB6803FB02F303F1FF1303F57F4375
S31500002FE003F07F427B68C3F854217B6893F80E3167
S31500002FF023F00203DAB27B6883F80E2100BF143790
S31500003000BD465DF8047B704780B584B000AF78603C
S315000030107B685B6ADB7DFB7300217868FFF70BFB3F
S31500003020FB7B18461037BD4680BD80B586B000AF25
S31500003030F860B9607A60FB68D3F8B8317B61FB68E9
S31500003040D3F8B83103F10802FB68C3F8B8217B69ED
S31500003050BA681A607B697A685A60FB68D3F8BC3133
S315000030605A1EFB68C3F8BC21FB68D3F8BC31002BA1
S3150000307004DCFB68D3F8C031F868984700BF1837FE
S31500003080BD4680BD2DE9F04896B000AFF860B96046
S315000030907A607B807A88B7F87430D31A9BB2A7F827
S315000030A04630B7F87020B7F87430D31A9BB2A7F839
S315000030B04430BB6893F8D53003F00103002B00F0D1
S315000030C0AE81D7F88030002B07D0FB68D3F880306C
S315000030D003F08063002B40F01081BB689B8AFB8560
S315000030E0BB68D3F81031BB62B7F97430B7F92E203C
S315000030F002FB03F34FF0784292FBF3F3BB64B7F99C
S3150000310074304FEAE3741A4623464FF078404FF086
S31500003110FF3146F0B1F803460C464FF000004FF081
S315000031200001210241EA13611802B7F92E304FEA75
S31500003130E3741A46234646F09FF803460C46C7E951
S315000031400634B7F94630B7F9462002FB03F2B7F961
S315000031504430B7F9441001FB03F31344002B00DAA3
S31500003160FF331B121A46BB6C03FB02F3002B00DA7B
S315000031700F331B111946B7F97430DA0F13445B107D
S315000031801BB21846B7F94620B7F944301344034436
S31500003190BA6A02FB03F3002B00DA0F331B115B4202
S315000031A00B44FB64B7F94630B7F9462002FB03F23D
S315000031B0B7F94430B7F9441001FB03F31344002B6D
S315000031C000DAFF331B124FEAE374BA6904FB02F11B
S315000031D0FA6903FB02F20A44B969A1FB03342244EB
S315000031E01446002B74F1000202DA0F3344F1000496
S315000031F04FF000014FF00002190941EA0471221153
S315000032000D461646B7F97430DA0F13445B101BB23D
S315000032101946B7F94620B7F9443013440B4419460A
S315000032204FEAE172BB6A4FF0000403FB02FC01FBAC
S3150000323004F06044A1FB031283181A464FF0000BFA
S315000032404FF0000C4FEA021C4CEA117C4FEA011BBE
S315000032502B463446B3EB0B0364EB0C04C7E904348A
S31500003260D7E90434002B74F1000202DAFF3344F18B
S3150000327000044FF000014FF00002190A41EA046110
S3150000328022120B461446FB64BB6C002B00DA0F338C
S315000032901B11BB64D7E90634002B74F1000206DA71
S315000032A040F6FF714FF000025B1844EB02044FF04A
S315000032B000014FF00002190B41EA045122130B469C
S315000032C01446BB64B7F90230C3F108035B00BA6C5D
S315000032D002FB03F3002B00DA0F331B117B65B7F9F2
S315000032E07030C3F108035B00BA6C02FB03F3002BDA
S315000032F000DA0F331B113B6514E1BB689B8AFB8523
S31500003300BB68D3F81031BB62B7F974304FF078421E
S3150000331092FBF3F39A01B7F92E3092FBF3F3BB64F9
S31500003320B7F94630B7F9462002FB03F2B7F9443045
S31500003330B7F9441001FB03F31344002B00DAFF3303
S315000033401B1219464FEAE172BB6C4FEAE37403FBAA
S3150000335002F501FB04F02844A1FB033402191446CC
S31500003360002B74F1000202DA0F3344F100044FF02F
S3150000337000014FF00002190941EA047122110D46BD
S315000033801646B7F97430DA0F13445B101BB21946B0
S31500003390B7F94620B7F9443013440B4419464FEAAF
S315000033A0E172BB6A4FF0000403FB02FC01FB04F070
S315000033B06044A1FB031283181A464FF0000B4FF02E
S315000033C0000C4FEA820C4CEA917C4FEA810B2B46AB
S315000033D03446B3EB0B0364EB0C04C7E90834BB6C4F
S315000033E01B11BB64B7F90230C3F108035B00BA6C6A
S315000033F002FB03F3002B00DA0F331B117B65B7F9D1
S315000034007030C3F108035B00BA6C02FB03F3002BB8
S3150000341000DA0F331B113B653B6AFB6482E0B7F8A9
S315000034204620B7F8443013431BB2002B1CD1B7F922
S3150000343074306F4A92FBF3F3BB64B7F974201346FA
S315000034405B059B1ADB02FB64B7F97430C3F1080312
S315000034505B00BA6C02FB03F3002B00DA0F331B117F
S315000034603B653B6D7B655DE0B7F97430614A92FB65
S31500003470F3F3BB64B7F94630B7F9462002FB03F312
S315000034803B64B7F94430B7F9442002FB03F3FB630E
S315000034903A6CFB6B134419464FEAE172BB6C4FEA78
S315000034A0E37403FB02F501FB04F02844A1FB0312BD
S315000034B083181A464FF000034FF00004CB0A43EA84
S315000034C04253D412C7E90C343A6BB7F97430D90FAA
S315000034D00B445B101BB21846B7F94610B7F94430D7
S315000034E00B4403441B03D31AFB64BB6CDB10BB64A5
S315000034F0B7F90230C3F108035B00BA6C02FB03F3B1
S31500003500002B00DA0F331B117B65B7F97030C3F15E
S3150000351008035B00BA6C02FB03F3002B00DA0F33DF
S315000035201B113B65FB6F002B29D17B68191DFA6CBB
S31500003530BB6F13441A46F868FFF777FD7B680533BF
S315000035407A6D1946F868FFF770FD7B6810333A6D9F
S315000035501946F868FFF769FD7B6803F10B01BB6C40
S315000035605B001A46F868FFF760FD7B6803F11101FE
S31500003570BB6C5B001A46F868FFF757FD32E07B68C4
S31500003580191DFB6C5A42BB6FD31A1A46F868FFF72F
S315000035904CFD7B68591D7B6D5B421A46F868FFF748
S315000035A044FD7B6803F110013B6D5B421A46F868E7
S315000035B0FFF73BFD7B6803F10B01BA6C1346DB0793
S315000035C09B1A5B001A46F868FFF72FFD7B6803F12C
S315000035D01101BA6C1346DB079B1A5B001A46F868A2
S315000035E0FFF723FD00BF5837BD46BDE8F08800BF92
S315000035F00000F8FF0000C0FF80B485B000AF78601F
S3150000360039607B681B690F4A1A607B681B693A68D8
S315000036105A607B681B690433FB607B689B68FA68A9
S31500003620DA607B681B6903F108027B681A617B68B4
S3150000363000229A61FB6818461437BD465DF8047B84
S31500003640704700BF3280808080B584B000AF78605C
S3150000365039607B689B69FB607B681B69BB60FB68A4
S31500003660032B6DD801A252F823F000BF7D3600006F
S3150000367093360000CD360000073700003B681B027A
S3150000368043F0FF02BB681A60BB681A1D7B681A61AB
S3150000369057E0BB681B68DAB2BB681A60BB681B6878
S315000036A043F0802343F40003BA6813603B681B02AF
S315000036B043F0FF031946BA68FB689B001344596040
S315000036C0BB6803F10C027B681A613AE0BB681B68B1
S315000036D09AB2BB681A60BB681B6843F0004343F4A8
S315000036E00003BA6813603B681B0243F0FF031946E8
S315000036F0BA68FB689B0013445960BB6803F110026B
S315000037007B681A611DE0BB681B6823F07F42BB68BB
S315000037101A60BB681B6843F00042BB681A603B68CE
S315000037201B0243F0FF031946BA68FB689B0013446B
S3150000373059607B681B6903F114027B681A6100E01B
S3150000374000BF7B6800229A617B68DB695A1E7B6832
S31500003750DA613B6803F00103002B06D17B68DB6965
S31500003760012B02D8786800F02DFA00BF1037BD464D
S3150000377080BD00BF80B483B000AF786039603B681D
S315000037805AB27B6883F8C6213B6818460C37BD469B
S315000037905DF8047B704780B584B000AF786039600F
S315000037A07B689B69FB60142005F0D4F8B860BB68A1
S315000037B0002B01D100235FE0BB683A689A60BB68C2
S315000037C00022DA607B689B6E03F00103002B0CD1AC
S315000037D03A6813469B0013449B001946786805F027
S315000037E03AF90246BB685A600AE03A6813469B00FB
S315000037F013449B00184605F0ADF80246BB685A60B4
S31500003800BB685B68002B04D1B86805F0AFF80023ED
S3150000381032E0BB6800221A617B689B6E03F00103ED
S31500003820002B25D17B68D3F8843003F01003002BDE
S3150000383009D0BB685B681946F8680AF021F90246A8
S31500003840BB681A6114E07B68D3F8843003F0020386
S31500003850002B0DD0BB689A6813469B0013449B004F
S315000038601A460421F8680AF0E5F80246BB681A61B0
S31500003870BB6800221A60BB6818461037BD4680BD7B
S3150000388080B584B000AF786039607B689B69FB6067
S315000038902BE03B681B68BB607B689B6E03F00103F3
S315000038A0002B06D13B685B681946786805F005F978
S315000038B004E03B685B68184605F058F83B681B69EE
S315000038C0002B0DD07B68D3F8843003F00203002B65
S315000038D006D03B681B691A460421F8680AF0B8F856
S315000038E0386805F043F8BB683B603B68002BD0D1D5
S315000038F000BF1037BD4680BD80B584B000AF78608C
S315000039007B689B681B68FB60FB68002B15D17B6896
S315000039101A687B681B6A19461046FFF73CFFF86079
S31500003920FB68002B05D17B681B68152283F8C7212D
S3150000393011E07B689B68FA681A60FB680022DA600F
S31500003940FB685A687B681A61FB689A687B68DA616B
S315000039507B68FA689A601037BD4680BD90B589B01D
S3150000396000AFF860B9607A60BB68FA681A60BB6835
S3150000397000225A61FB68DB6F002B70D0FB68DB6F9F
S315000039807B617B691A68BB685A60202004F0E2FFFD
S315000039900246BB685A61BB685B69002B01D10023F4
S315000039A0BDE0BB685B693B617B699B689B00184611
S315000039B004F0D0FF02463B691A603B691B68002B86
S315000039C001D10023ABE07B699A683B695A607B6949
S315000039D05B68FA68D2F8882002FB03F23B699A60BA
S315000039E07B695A683B695A610023BB6109E03B6900
S315000039F01A68BB699B00134400221A60BB69013335
S31500003A00BB613B695B68BA699A42F0D33B691A6845
S31500003A103B69DA60FB6898693B699A6813469B00C4
S31500003A2013449B001A463B691C6804210AF002F8FD
S31500003A30034623603B691B681B68002B01D10023EA
S31500003A406DE03B691B681A683B691A613B695A68F5
S31500003A503B69DA613B695A693B699A6106E07968B4
S31500003A60F868FFF798FE0246BB685A60BB685A685A
S31500003A70BB68DA60BB685B68002B01D100234EE0AF
S31500003A80BB685A68BB689A60BB685B685A68BB6863
S31500003A901A61BB685B689A68BB68DA61BB6800221A
S31500003AA09A61BB6800229A62BB680022DA62BB6830
S31500003AB010229A86402004F04DFF0246BB681A6326
S31500003AC0BB681B6B002B01D1002328E0BB685B6938
S31500003AD0002B05D0BB685B691B681B68FB6114E0A3
S31500003AE0FB68D3F8843003F01203002B09D0BB68BF
S31500003AF05B681B69002B04D0BB685B681B69FB61B4
S31500003B0003E0BB685B685B68FB61B968F86800F056
S31500003B109AFEFA69B968F86800F0B9FE01231846FA
S31500003B202437BD4690BD80B584B000AF78607B6811
S31500003B305B69002B30D07B681B689B69BB600023E8
S31500003B40FB6017E07B685B691A68FB689B0013449F
S31500003B501B68002B0BD07B685B691A68FB689B00AF
S31500003B6013441B681A460421B86809F071FFFB6804
S31500003B700133FB607B685B695B68FA689A42E1D354
S31500003B807B685B691B68184604F0F0FE7B685B691E
S31500003B90184604F0EBFE07E07B681A687B685B68F2
S31500003BA019461046FFF76CFE7B681B6B002B05D091
S31500003BB07B681B6B184604F0D9FE00BF00BF1037A8
S31500003BC0BD4680BD80B58EB002AF78607B685B690C
S31500003BD0BB62BB6A002B23D100217868FFF70CFD7E
S31500003BE0F86003217868FFF72FFD7868FFF784FEF9
S31500003BF07B681B6893F9C731002B0AD07B681B6969
S31500003C00A3F10C027B681A6103217868FFF71CFD9B
S31500003C10E2E07B689B685B681A46FB681A60DBE03B
S31500003C207B68DB69002B04D0BB6A9B69012B40F0E3
S31500003C30D3807B681B689B697B62BB6A9B69012B8F
S31500003C404BD97B689B68BB61BB695968BB699A683D
S31500003C5013469B0013449B000B447B617B681B69E6
S31500003C60FB62BB6A1969BB699A6813469B001344D9
S31500003C709B000B443B61BB69DB68002B0ED0BB6924
S31500003C80DB683A691A60BB690022DA6006E0FB6A03
S31500003C904FF080321A60FB6A0433FB62FA6A7B6972
S31500003CA09A42F4D3BB6A1969BB695868BB699A68BA
S31500003CB013469B0013449B001A4610230093134699
S31500003CC00246786A09F0F4FEBB6A3A691A61BB6A71
S31500003CD09B695A1EBB6A9A6176E0BB6ADB69012B57
S31500003CE065D97B689B683B62BB6ADB680433FB6112
S31500003CF0BB6ADB695A1EBB6ADA61FB691B68002B6B
S31500003D0016D1BB6A9A6813469B0013449B001A4659
S31500003D100421786A09F08EFE0246FB691A60FB6987
S31500003D201B68002B04D17B681B68012283F8C7211E
S31500003D30FB691B68002B12D03B6ADB68002B08D09E
S31500003D40FB691A683B6ADB681A603B6A0022DA6024
S31500003D5005E0FB691B6819467868FFF74DFC0321EF
S31500003D607868FFF771FCBB6A19697B689B685868BD
S31500003D707B689B689A6813469B0013449B001A460F
S31500003D801023009313460246786A09F091FEFB69F8
S31500003D901B68002B18D0BB6AFA69DA60FB691A68DF
S31500003DA0BB6A1A61BB6A5A69BB6A9A610CE0BB6A54
S31500003DB0DB69012B08D1BB6A9B69012B04D17B68A7
S31500003DC01B68152283F8C7217868FFF795FD7B6885
S31500003DD01B6893F9C731002B3037BD4680BDFFFF06
S31500003DE080B485B000AF78607B689B69FB607B68B8
S31500003DF01B69BB60FB68032B42D801A252F823F073
S31500003E00953E0000113E0000373E00005D3E00007A
S31500003E10BB681B68DAB2BB681A60BB681B6843F0F4
S31500003E20802343F40003BA681360BB6803F10802F9
S31500003E307B681A6125E0BB681B689AB2BB681A608A
S31500003E40BB681B6843F0004343F40003BA68136081
S31500003E50BB6803F10C027B681A6112E0BB681B6841
S31500003E6023F07F42BB681A60BB681B6843F00042C0
S31500003E70BB681A60BB6803F110027B681A6100E038
S31500003E8000BF7B6800229A617B68DB695A1E7B68EB
S31500003E90DA6100E000BF1437BD465DF8047B704769
S31500003EA080B485B000AF78607B681B688C33BB60DC
S31500003EB07B681B689B6E03F02003002B0ED100234A
S31500003EC0FB6008E0BA68FB681344EC3300221A7002
S31500003ED0FB680133FB60FB683A2BF3DD7B685A68AD
S31500003EE07B689A607B685A687B68DA607B685B6986
S31500003EF0002B18D07B685A697B685B691268DA60A8
S31500003F007B685B691A687B685B6912681A617B6803
S31500003F105A697B685B695268DA617B685A697B68B3
S31500003F205B6952699A617B685B685A687B681A614B
S31500003F307B685B689A687B68DA617B6800229A61B5
S31500003F407B680022DA6200BF1437BD465DF8047B49
S31500003F50704790B589B002AFF860B9607A60002307
S31500003F607B61BB681B68184600F0F2F90321B8684C
S31500003F70FFF76AFBFB68DB6F002B2BD1BB689B68E6
S31500003F801B68002B05D0BB689B6A5A1CBB689A62EB
S31500003F9002E0BB6800229A62BB689B6A3C2B19D17F
S31500003FA0BB689B683B6102E03B691B683B613B6900
S31500003FB01B681B68002BF7D1BB681A683B691B6836
S31500003FC019461046FFF75CFC3B6900221A60BB6885
S31500003FD000229A62BB685B69002B21D07B68002BAC
S31500003FE037D0BB681B68184600F02BFF0446BB6839
S31500003FF05B691969BB689B685868BB689B689A6867
S31500004000BB68DB69D21A13469B0013449B001A4611
S315000040100023009313460246204609F049FD18E0A6
S31500004020FB68D3F8843003F00203002B03D0B86892
S3150000403000F026FB0DE0FB68D3F8843003F0100394
S31500004040002B03D0B86800F0B1FB02E0B86800F0BE
S315000040506EFB7B68002B06D0B868FFF721FFBB68B4
S3150000406000225A6226E0BB680022DA61B868FFF7D0
S31500004070A9FDBB689A68BB68DA60BB685B69002B00
S3150000408004D0BB685B691B697B6113E0FB68D3F8EE
S31500004090843003F01203002B09D0BB689B681B69B0
S315000040A0002B04D0BB689B681B697B6102E0BB6880
S315000040B01B697B617B6918461C37BD4690BD80B580
S315000040C08AB000AF7860396000237B627B689B69A9
S315000040D0FB6100233B623B681B68BB61BB6903F065
S315000040E08033002B00F0BE80BB69B3F1803F03D163
S315000040F03B6804333B60ECE7BB6903F40043002BE9
S3150000410019D0BB69DBB2322B01D17B6AF0E0BB6907
S31500004110DBB27B613B685B681A467969F86902F035
S3150000412031F97B69202B02D1F86902F03BF93B6833
S3150000413008333B60CDE7BB6903F40003002B3DD099
S31500004140BB69DBB2FF2B11D1BB691B0ADBB27B62F9
S315000041507B6A022B08D13B6804333B60F86902F0A6
S3150000416021F901233B6201E07B6AC1E03B6A002B37
S31500004170AFD1BB69DBB27B61BB691B0ADBB23B61BA
S315000041803B685B681A467969F86902F0FBF87B6957
S31500004190202B02D1F86902F005F93B689B681A46A4
S315000041A03969F86902F0EEF83B69202B02D1F8690B
S315000041B002F0F8F83B680C333B608AE7BB69002BDA
S315000041C035DABB69DBB27B61BB691B0ADBB23B61DB
S315000041D0BB691B0CDBB2FB603B685B681A467969FE
S315000041E0F86902F0CFF87B69202B02D1F86902F05A
S315000041F0D9F83B689B681A463969F86902F0C2F833
S315000042003B69202B02D1F86902F0CCF83B68DB68E9
S315000042101A46F968F86902F0B5F8FB68202B02D156
S31500004220F86902F0BFF83B6810333B6051E7BB69A1
S31500004230DBB2FF2B12D1BB691B0ADBB27B627B6A46
S31500004240022B02D07B6A042B06D13B6804333B6009
S31500004250F86902F0A7F83CE77B6A49E03B6804335B
S315000042603B6036E7BB69DBB27B61BB691B0ADBB22D
S315000042703B61BB691B0CDBB2FB60BB691B0EBB6001
S315000042803B685B681A467969F86902F07BF87B69D6
S31500004290202B02D1F86902F085F83B689B681A4624
S315000042A03969F86902F06EF83B69202B02D1F8698A
S315000042B002F078F83B68DB681A46F968F86902F09C
S315000042C061F8FB68202B02D1F86902F06BF83B68B5
S315000042D01B691A46B968F86902F054F8BB68202BC6
S315000042E002D1F86902F05EF83B6814333B60F0E6F1
S315000042F018462837BD4680BD80B582B000AF7860CD
S31500004300786800F025F87B68DB6804211846FFF71B
S315000043109BF900217868FFF72DFA034618460837FF
S31500004320BD4680BD80B582B000AF7860786800F089
S315000043300FF87B68DB6802211846FFF785F9002134
S315000043407868FFF717FA034618460837BD4680BD5A
S3150000435080B594B000AF78607B687B637B68DB6870
S315000043603B637B6BD3F8B431FB647B6BD3F8B8311A
S315000043701A467B6BD3F8B431D31ADB103B643B6B24
S315000043801B688C33FB62FB6ABB62FB6AEC337B62A5
S315000043907B689B6E03F02003002B7ED13B6B9B69F1
S315000043A0FB633B6B1B69BB6400237B6465E00023F6
S315000043B0BB63FB6C1B683B61FB6C5B68FB60FB6C67
S315000043C00833FB648D4A3B6913441B78002B1CD0D1
S315000043D07A6A3B69134493F90030002B0AD03B6993
S315000043E09B00BA6A13441B68FA689A4202D10123F9
S315000043F0BB630AE07A6A3B69134401221A703B697F
S315000044009B00BA6A1344FA681A60BB6B002B31D161
S315000044103B69D9B2BA6CFB6B13440A461A70BA6C84
S31500004420FB6B9B001344FA685A60FB6B013303F085
S315000044300303FB633B6BDB6A5A1C3B6BDA62FB6B69
S31500004440002B17D13B6B1B6903F114023B6B1A61FE
S315000044503B6BDB695A1E3B6BDA613B6BDB69012BFD
S3150000446005D83B6BFA6B9A61386BFFF7ABFB3B6B7E
S315000044701B69BB647B6C01337B647A6C3B6C9A4230
S3150000448005D23B6B1B6893F9C731002B8FD03B6B72
S31500004490FA6B9A6100233B64E3E03B6BDA6A3B6CA0
S315000044A01A443B6BDA623B6B9B69FB633B6B1B6895
S315000044B093F9C731002B40F0D480FB6B002B3FD023
S315000044C03B6B1B69BB641DE0FB6C1B683B62FB6CB2
S315000044D05B68FB61FB6C0833FB643B6C013B3B6434
S315000044E03B6AD9B2BA6CFB6B13440A461A70BA6CB3
S315000044F0FB6B9B001344FA695A60FB6B013303F0B4
S315000045000303FB633B6C002B02D0FB6B002BDBD160
S31500004510FB6B002B14D13B6BFA6B9A613B6B1B69EF
S3150000452003F114023B6B1A613B6BDB695A1E3B6B52
S31500004530DA613B6BDB69012B02D8386BFFF742FB74
S31500004540FB6B002B40F08D8000237B6444E03B6BCB
S315000045501B69BB64FB6C1B68DAB2BB6C1A70FB6C24
S3150000456008331B68DAB2BB6C5A70FB6C10331B68DD
S31500004570DAB2BB6C9A70FB6C18331B68DAB2BB6C90
S31500004580DA70FB6C5A68BB6C5A60FB6C08335A686D
S31500004590BB6C9A60FB6C10335A68BB6CDA60FB6CC0
S315000045A018335A68BB6C1A613B6B1B6903F1140222
S315000045B03B6B1A613B6BDB695A1E3B6BDA613B6BEB
S315000045C0DB69012B02D8386BFFF7FCFAFB6C203352
S315000045D0FB647B6C01337B643B6C9B087A6C9A4270
S315000045E005D23B6B1B6893F9C731002BAFD03B6CF0
S315000045F003F003033B6400237B6428E0ACA20400C1
S31500004600FB6C1B68BB61FB6C5B687B61FB6C0833F6
S31500004610FB643B6B9B69FB633B6B1B69BB64BB69C0
S31500004620D9B2BA6CFB6B13440A461A70BA6CFB6BB0
S315000046309B0013447A695A60FB6B013303F0030352
S31500004640FB633B6BFA6B9A617B6C01337B647A6C20
S315000046503B6C9A4205D23B6B1B6893F9C731002B22
S31500004660CED07B6BD3F8B4217B6BC3F8B8217B6BC0
S315000046704022C3F8BC2100BF5037BD4680BD00BFF5
S3150000468080B588B002AF78607B681B689B693B6128
S315000046907B68DB687B617B689B68FB607B681B686B
S315000046A09B6E03F00103002B3DD122E07B691B6862
S315000046B0002B09D07B69DB68002B05D07B691B6862
S315000046C01A697B69DB681A607B6919697B695868B6
S315000046D07B699A6813469B0013449B001A46002385
S315000046E0009313460246386909F0E2F97B691B68B4
S315000046F07B617A69FB689A42D8D17B6919697B69C3
S3150000470058687B699A687B68DB69D21A13469B00F6
S3150000471013449B001A460023009313460246386949
S3150000472009F0C6F900E000BF1837BD4680BD80B568
S3150000473086B000AF78607B681B689B693B617B68CD
S31500004740DB687B617B689B68FB607B681B689B6E94
S3150000475003F00103002B25D10FE07B6959687B69C3
S315000047609A6813469B0013449B000A460421386945
S3150000477009F0AFF97B691B687B617A69FB689A422D
S31500004780EBD17B6959687B699A687B68DB69D21AC9
S3150000479013469B0013449B000A460421386909F01E
S315000047A098F900E000BF1837BD4680BD80B586B0D9
S315000047B000AF78607B681B689B693B617B68DB6840
S315000047C07B617B689B68FB607B681B689B6E03F064
S315000047D00103002B33D11DE07B691B68002B09D038
S315000047E07B69DB68002B05D07B691B681A697B69CE
S315000047F0DB681A607B6919697B699A6813469B00B6
S3150000480013449B000A460421386909F062F97B6962
S315000048101B687B617A69FB689A42DDD17B691969FD
S315000048207B699A687B68DB69D21A13469B0013443E
S315000048309B000A460421386909F04BF900E000BFE5
S315000048401837BD4680BD80B485B000AF786039604A
S315000048503B681B6BBB600023FB6008E0FB689B00AA
S31500004860BA68134400221A60FB680133FB603B6898
S31500004870B3F934301A46FB689342EFDB3B680022FB
S31500004880DA8600BF1437BD465DF8047B704780B5F5
S3150000489088B000AFF860B9607A60BB681B6BBB611B
S315000048A0BB68B3F936307B61BB68B3F93430013B82
S315000048B07A699A422BDBBB68B3F934309BB210336A
S315000048C09BB21AB2BB689A86BB68B3F934309800BB
S315000048D0BB681B6B0122194604F053F80246BB68FD
S315000048E01A63BB681B6BBB617B69FB6108E0FB69F4
S315000048F09B00BA69134400221A60FB690133FB610D
S31500004900BB68B3F934301A46FB699342EFDB7B6927
S315000049109B00BA6913447A681A607B699BB20133BB
S315000049209BB21AB2BB68DA867B699B00BA691344EC
S3150000493018462037BD4680BD80B483B000AF78608E
S3150000494039603B685AB27B6883F8C6213B681846D3
S315000049500C37BD465DF8047B704780B584B000AF68
S31500004960786039603B6803F04003002B02D00023D7
S31500004970FB6003E0702003F0EDFFF860002178682B
S31500004980FFF7DAFFFB6818461037BD4680BDFFFF0C
S3150000499080B584B000AF78604FF4EA7003F0DAFFB8
S315000049A0B860BB68002B00F0C580BB687A689A6661
S315000049B0BB68002283F8C621BB68002283F8C721A2
S315000049C0BB6800229A61BB680022DA61BB680222DA
S315000049D09A64BB680022DA64BB6800221A65BB6869
S315000049E04FF400125A65B868FDF736FE0246BB68FA
S315000049F01A62BB681A6ABB685A62BB681A6ABB68E5
S31500004A009A62BB681A6ABB68DA627968B868FFF7A7
S31500004A10A4FF0246BB681A63BB6800225A63BB68E0
S31500004A2000229A63BB68002283F8C421BB68002277
S31500004A30DA63BB6800221A64BB6800225A64BB684A
S31500004A4001225A66BB680022A3F86C20BB680022CC
S31500004A50A3F86E20BB680022A3F87020BB68002272
S31500004A60A3F87220BB680022A3F87420BB6800225A
S31500004A70A3F87620BB680022A3F87820BB68002242
S31500004A801A61BB6800225A61BB680022DA60BB6803
S31500004A9000229A60BB6800225A60BB68CC22C3F829
S31500004AA08820BB680522DA657B6803F00403002BC7
S31500004AB005D0BB68DB6D23F00102BB68DA657B6855
S31500004AC003F00803002B05D0BB68DB6D23F004025E
S31500004AD0BB68DA65BB6800221A66BB680022DA6723
S31500004AE00023FB6010E0BA68FB6822339B00134486
S31500004AF000225A60BA68FB68134403F5BC730022AF
S31500004B001A70FB680133FB60FB683A2BEBDDBB6870
S31500004B100022C3F88020BB68002283F8C821BB6846
S31500004B20082283F8C521064B1A68BB681A60044A36
S31500004B30BB681360BB6818461037BD4680BD00BF12
S31500004B409C11FE1F80B584B000AF78607B689B69BE
S31500004B50002B04D0786800F00FF9F86001E000231C
S31500004B60FB60214BBB6002E0BB681B68BB60BB6897
S31500004B70002B04D0BB681B687A689A42F4D1BB68E4
S31500004B80002B01D102232AE07B681A68BB681A60F1
S31500004B907B6800221A6205E07B68DB691946786843
S31500004BA0FDF7CCFE7B68DB69002BF5D17B68DB6FFC
S31500004BB0002B04D07B68DB6F184603F0D7FE7B68BA
S31500004BC01B6B002B04D07B681B6B184603F0CEFED4
S31500004BD07B6800221A63786803F0C8FEFB681846F3
S31500004BE01037BD4680BD00BF9C11FE1F90B587B033
S31500004BF000AF786039607B683B613968786801F09E
S31500004C006DFB02463B699A613B699B69002B05D1A6
S31500004C1005217868FFF790FE0346A7E000237B6135
S31500004C2009E03A697B69134403F5BC7300221A70E4
S31500004C307B6901337B617B693A2BF2DD3B69DB6F74
S31500004C40002B1DD03B69DB6FFB603B69D3F88830D6
S31500004C5019467868FEF79FFD0246FB681A603B69B5
S31500004C60D3F88820FB681C6811467868FEF793FD28
S31500004C7003462360FB681B681B68FA6812681A60A3
S31500004C803B69D3F888103B69D3F888301A467868B0
S31500004C9004F053FB02463B691A613B69D3F888105E
S31500004CA03B69D3F888301A46786804F046FB02461A
S31500004CB03B695A613B691B69002B03D03B695B6901
S31500004CC0002B05D101217868FFF736FE01234DE060
S31500004CD03B691A693B69DA603B691B691A463B699D
S31500004CE09A603B695B691A463B695A603B690022D8
S31500004CF05A634FF4007003F02DFE02463B69C3F879
S31500004D00B4213B69D3F8B4213B69C3F8B8213B69A8
S31500004D104022C3F8BC213B69164AC3F8C0213B694F
S31500004D20002283F8C9213B699B690A21184608F0CD
S31500004D30DFFC0346002B14D03B699869FF23002251
S31500004D400A2108F091FC3B699B6900220A2118465A
S31500004D5008F0ABFC0346FF2B03D13B69012283F825
S31500004D60C92100217868FFF7E7FD034618461C377E
S31500004D70BD4690BD5143000080B586B000AF786057
S31500004D807B689B69002B53D07B68DB6F002B0CD0B4
S31500004D907B68DB6F1B681B6800221A607B68DB6F11
S31500004DA01B6819467868FEF76BFD7B681B697B619B
S31500004DB07B685B693B617B6800221A617B68002225
S31500004DC05A617B69002B03D07969786804F018FB77
S31500004DD03B69002B03D03969786804F011FB7B68C6
S31500004DE00022DA607B6800229A607B6800225A60A3
S31500004DF07B6800225A637B68D3F8B431184603F007
S31500004E00B5FD7B680022C3F8B4217B680022C3F895
S31500004E10B8217B689B69184601F0A3FAF8607B68A5
S31500004E2000229A61F9687868FFF786FD034604E078
S31500004E3000217868FFF780FD034618461837BD46FF
S31500004E4080BD80B483B000AF78607B689B691846EC
S31500004E500C37BD465DF8047B704780B584B000AF63
S31500004E60786039607B68002B01D1022338E07B68CB
S31500004E705B6EFB60FA683B689A4205D10021786850
S31500004E80FFF75AFD03462BE0FA683B689A4208D0C2
S31500004E90FB68082B05D03B68082B02D0786800F029
S31500004EA023F87B683A685A667B685B6A93F80E213A
S31500004EB07B685B6A42F00102D2B283F80E21FB687E
S31500004EC0082B02D1786804F0BBFC3B68082B02D1A2
S31500004ED0786804F06FFC00217868FFF72DFD034623
S31500004EE018461037BD4680BD80B582B000AF7860E9
S31500004EF0786804F0D5FC7B685B6A93F80E217B68C2
S31500004F005B6A42F00102D2B283F80E210021786872
S31500004F10FFF712FD034618460837BD4680BD80B52B
S31500004F2082B000AF78600B467B807B687A88A3F8F6
S31500004F306C2000217868FFF7FFFC03461846083707
S31500004F40BD4680BD80B582B000AF78607B68002B1F
S31500004F5008D0786801F039FA00217868FFF7ECFC90
S31500004F60034600E0022318460837BD4680BD80B5DB
S31500004F7084B000AF78607B68DB68FB607868FFF719
S31500004F80E7F9FB681A69FB685B685B689A4201D0BF
S31500004F9001230FE0FB685B69002B0AD0FB685B69A5
S31500004FA01A69FB685B691B681B689A4201D1012379
S31500004FB000E0002318461037BD4680BD90B58DB081
S31500004FC000AFF8607B600B467B8113463B817B6CB0
S31500004FD003F00103002B02D00023FB6203E0BB6C4D
S31500004FE0D3F81031FB627B6C03F00203002B02D076
S31500004FF00023BB6203E0BB6CD3F81031BB62BB6C11
S31500005000D3F810311B011C467B687A6802FB03F259
S315000050103B6C396C01FB03F31344184603F06FFB3A
S31500005020034694FBF3F37B62FB6C002B02D0FB6C14
S315000050307A6A1A603B6C5B427A6A02FB03F31B11C5
S315000050403B627B687A6A02FB03F31B11FB61B7F9CB
S315000050500A305B423A6A02FB03F2B7F90830F96993
S3150000506001FB03F3D31A1B11BB61B7F90A305B428C
S31500005070FA6902FB03F2B7F90830396A01FB03F358
S3150000508013441B117B61B7F90A207B681344FA6944
S3150000509002FB03F2B7F908103B6C0B44396A01FBBB
S315000050A003F3D31A1B113B61BB6CD3F810315B08B9
S315000050B01A46BB691A44FB681A60FB683A6A5A606A
S315000050C0FB68FA699A60FB680C337969FA6A0A44E4
S315000050D01A60FB680C33FA695A60FB680C333A6A4B
S315000050E052429A60FB6818333969BA6A0A441A60F0
S315000050F0FB681833FA6952425A60FB6818333A6AF9
S315000051009A6000BF3437BD4690BD80B58CB000AF05
S31500005110F8607B600B467B8113463B81FB6B03F09B
S315000051200103002B02D00023FB6202E04FF4803320
S31500005130FB62FB6B03F00203002B02D00023BB6271
S3150000514002E04FF48033BB627B687A6802FB03F2AD
S31500005150BB6BB96B01FB03F31344184603F0CFFA9C
S3150000516002464FF4801393FBF2F37B623B6C002BF9
S3150000517002D03B6C7A6A1A60BB6B5B427A6A02FBAE
S3150000518003F31B113B627B687A6A02FB03F31B1174
S31500005190FB61B7F90A305B423A6A02FB03F2B7F9E0
S315000051A00830F96901FB03F3D31A1B11BB61B7F988
S315000051B00A305B42FA6902FB03F2B7F90830396A32
S315000051C001FB03F313441B117B61B7F90A207B68CB
S315000051D01344FA6902FB03F2B7F90810BB6B0B44E0
S315000051E0396A01FB03F3D31A1B113B61BB6903F553
S315000051F00042FB681A60FB683A6A5A60FB68FA6903
S315000052009A60FB680C337969FA6A0A441A60FB688B
S315000052100C33FA695A60FB680C333A6A52429A6058
S31500005220FB6818333969BA6A0A441A60FB6818338E
S31500005230FA6952425A60FB6818333A6A9A6000BFAC
S315000052403037BD4680BDFFFF80B48DB000AFF8603B
S315000052507B600B467B8113463B81FB6B03F00103AE
S31500005260002B02D00023BB6102E04FF48033BB6108
S31500005270FB6B03F00203002B02D000237B6102E0EC
S315000052804FF480337B617B68002B80F2F080BB6B30
S31500005290002B77DA7A68BB6B9A4238DABB6B1A0452
S315000052A07B6892FBF3F33B61B7F908301A03B7F951
S315000052B00A30396901FB03F31B11D31A7B62B7F974
S315000052C00A301A03B7F90830396901FB03F31B11D9
S315000052D013443B62B7F90A207B6813441B035A4206
S315000052E0B7F90810BB6B0B44396901FB03F31B11BB
S315000052F0D31AFB613B69FB629B4BBB623B6C002B89
S3150000530000F0A8817B685A423B6C1A60A2E17B6878
S315000053101A04BB6B5B4292FBF3F33B61B7F90A30AD
S315000053205B421A03B7F90830396901FB03F31B1115
S31500005330D31A7B62B7F908301A03B7F90A3039690C
S3150000534001FB03F31B11D31A3B62B7F90A207B68F2
S3150000535013443A6902FB03F31A11B7F90810BB6B41
S315000053600B441B03D31AFB614FF48033FB623B698A
S31500005370BB623B6C002B00F06D81BB6B5A423B6CF1
S315000053801A6067E17B685B42BA6B9A4237DABB6B9D
S315000053901A047B6892FBF3F33B61B7F908301A03F2
S315000053A0B7F90A30396901FB03F31B11D31A7B6283
S315000053B0B7F90A301A03B7F90830396901FB03F364
S315000053C01B1113443B62B7F90A207B6813441B0385
S315000053D05A42B7F90810BB6B0B44396901FB03F35A
S315000053E01B11D31AFB613B69FB625F4BBB623B6CD3
S315000053F0002B00F02F813B6C7A681A602AE17B68EB
S315000054001A04BB6B92FBF3F33B61B7F90A301A033C
S31500005410B7F90830396901FB03F31B11D31A7B6214
S31500005420B7F908305B421A03B7F90A30396901FB4C
S3150000543003F31B11D31A3B62B7F90A207B681344A6
S315000054403A6902FB03F31A11B7F90810BB6B0B4458
S315000054501B031344FB61444BFB623B69BB623B6C21
S31500005460002B00F0F7803B6CBA6B1A60F2E0BB6B66
S31500005470002B7BDABB6B5B427A689A423ADDBB6BE8
S315000054801A047B685B4292FBF3F33B61B7F9083081
S315000054905B421A03B7F90A30396901FB03F31B11A2
S315000054A0D31A7B62B7F90A305B421A03B7F90830A0
S315000054B0396901FB03F31B1113443B62B7F90A2058
S315000054C07B6813441A03B7F90810BB6B0B443969A0
S315000054D001FB03F31B11D31AFB613B69FB624FF41B
S315000054E08033BB623B6C002B00F0B4803B6C7A6867
S315000054F01A60AFE07B681A04BB6B5B4292FBF3F366
S315000055003B61B7F90A305B421A03B7F908303969CB
S3150000551001FB03F31B11D31A7B62B7F908301A0398
S31500005520B7F90A30396901FB03F31B11D31A3B6241
S31500005530B7F90A207B6813443A6902FB03F31A1190
S31500005540B7F90810BB6B0B441B03D31AFB614FF46E
S315000055508033FB623B69BB623B6C002B7AD0BB6B32
S315000055605A423B6C1A6075E00000FFFF7A68BB6B1D
S315000055709A4239DDBB6B1A047B685B4292FBF3F3FC
S315000055803B61B7F908305B421A03B7F90A3039694B
S3150000559001FB03F31B11D31A7B62B7F90A305B4296
S315000055A01A03B7F90830396901FB03F31B111344D9
S315000055B03B62B7F90A207B6813441A03B7F908104F
S315000055C0BB6B0B44396901FB03F31B11D31AFB6157
S315000055D03B69FB624FF48033BB623B6C002B39D0D6
S315000055E03B6C7A681A6035E07B681A04BB6B92FBE9
S315000055F0F3F33B61B7F90A301A03B7F90830396992
S3150000560001FB03F31B11D31A7B62B7F908305B4227
S315000056101A03B7F90A30396901FB03F31B11D31AD0
S315000056203B62B7F90A207B6813443A6902FB03F32D
S315000056301A11B7F90810BB6B0B441B031344FB612B
S315000056401C4BFB623B69BB623B6C002B02D03B6C84
S31500005650BA6B1A607B6A03F50042FB681A60FB6846
S31500005660FA6A5A60FB68BA6A9A60FB680C33396A50
S31500005670BA690A441A60FB680C33BA6A5A60FB6856
S315000056800C33FA6A52429A60FB681833F9697A69F0
S315000056900A441A60FB681833BA6A52425A60FB68B9
S315000056A01833FA6A9A6000BF3437BD465DF8047B4A
S315000056B0704700BF0000FFFF80B489B000AFF860FC
S315000056C07B600B467B8113463B817B68002B71DA3E
S315000056D0BB6A002B3DDA7B689AB27B8913449BB286
S315000056E07B81BB6A9AB23B8913449BB23B817A6841
S315000056F0BB6A9A4217DD7B681A04BB6A92FBF3F316
S315000057003B61B7F908303A6902FB03F31A11B7F99E
S315000057100A301B03D31AFB614FF48033BB613B692C
S315000057205B427B61BBE0BB6A1A047B6892FBF3F3C6
S315000057303B61B7F908301A03B7F90A30396901FB3A
S3150000574003F31B11D31AFB613B69BB615E4B7B61A3
S31500005750A5E07B685B42BA6A9A4215DABB6A1A040C
S315000057607B6892FBF3F33B61B7F908301A03B7F98C
S315000057700A30396901FB03F31B11D31AFB613B693C
S31500005780BB61514B7B618AE07B681A04BB6A92FB62
S31500005790F3F33B61B7F90A301A03B7F908303969F0
S315000057A001FB03F31B11D31AFB61474BBB613B693A
S315000057B07B6174E0BB6A002B40DA7B689AB27B8916
S315000057C013449BB27B81BB6A9AB23B8913449BB25A
S315000057D03B81BB6A5B427A689A4217DDBB6A1A0450
S315000057E07B6892FBF3F33B61B7F90A303A6902FB37
S315000057F003F31A11B7F908301B03D31AFB613B698F
S315000058005B42BB614FF480337B6148E07B681A04DE
S31500005810BB6A92FBF3F33B61B7F908303A6902FBC6
